02025040120250430SEGNALAZIONI ADE TRANSAZIONI                                                                                                                                                          A
132875      008786218                     003657018                                         82003162                      002025040297800000000001827440000000008 20251014                                                                               A
132875      008786218                     003657018                                         82003251                      002025040297800000000002247520000000008 20251014                                                                               A
132875      008329357                     003337603                                         00824681                      002025040297800000000000923080000000025 20251014                                                                               A
132875      009605425                     004069965                                         03522572                      002025040297801000000000080000000000002 20251014                                                                               A
132875      009602158                     004069965                                         03522455                      002025040297801000000000348870000000006 20251014                                                                               A
132875      008974152                     003774151                                         02905361                      002025040297800000000002739200000000073 20251014                                                                               A
132875      009381050                     004031296                                         00817258                      002025040297800000000000476470000000015 20251014                                                                               A
132875      009590114                     004069965                                         03522033                      002025040297801000000000025310000000001 20251014                                                                               A
132875      009597168                     004081820                                         03522260                      002025040297801000000000218260000000007 20251014                                                                               A
132875      009593019                     004069965                                         03522114                      002025040297801000000000310210000000006 20251014                                                                               A
132875      009565876                     003548902                                         03521397                      002025040297801000000000247850000000004 20251014                                                                               A
132875      009562733                     004069965                                         03521247                      002025040297801000000000564090000000009 20251014                                                                               A
132875      009561776                     004069965                                         03521241                      002025040297801000000000281360000000006 20251014                                                                               A
132875      008786218                     003657018                                         82001138                      002025040297800000000004632250000000012 20251014                                                                               A
132875      008786218                     003657018                                         82000515                      002025040297800000000000746210000000003 20251014                                                                               A
132875      008786218                     003657018                                         82000979                      002025040297800000000000268500000000001 20251014                                                                               A
132875      009591708                     004076366                                         02910539                      002025040297800000000000918760000000048 20251014                                                                               A
132875      009413028                     003347883                                         03512482                      002025040297801000000000020000000000001 20251014                                                                               A
132875      009411998                     004029852                                         03512406                      002025040297801000000000594120000000010 20251014                                                                               A
132875      009406642                     004032815                                         03519021                      002025040297801000000000290500000000006 20251014                                                                               A
132875      005336869                     001255063                                         02906516                      002025040297800000000000020000000000002 20251014                                                                               A
132875      009491214                     004052912                                         03520022                      002025040297801000000000175130000000006 20251014                                                                               A
132875      009517331                     004062564                                         00819738                      002025040297800000000002837660000000045 20251014                                                                               A
132875      009558780                     004073124                                         03521125                      002025040297801000000000025000000000001 20251014                                                                               A
132875      008504235                     001820893                                         02904543                      002025040297800000000015922770000000001 20251014                                                                               A
132875      009538998                     004015737                                         00825283                      002025040397800000000000070000000000001 20251014                                                                               A
132875      009472263                     003992837                                         00811931                      002025040397800000000000190550000000003 20251014                                                                               A
132875      009476652                     004049348                                         00811388                      002025040397800000000000150000000000005 20251014                                                                               A
132875      009499498                     004055311                                         00813531                      002025040297800000000000782220000000023 20251014                                                                               A
132875      009496668                     003708043                                         00824176                      002025040297800000000000762360000000026 20251014                                                                               A
132875      008786218                     003657018                                         82000146                      002025040397800000000001513700000000007 20251014                                                                               A
132875      008786218                     003657018                                         82000175                      002025040397800000000001041500000000002 20251014                                                                               A
132875      008786218                     003657018                                         82001820                      002025040397800000000000661500000000002 20251014                                                                               A
132875      008786218                     003657018                                         82001333                      002025040397800000000002229690000000007 20251014                                                                               A
132875      008786218                     003657018                                         82000839                      002025040397800000000002366000000000006 20251014                                                                               A
132875      009576014                     004056350                                         00812933                      002025040397800000000000673410000000012 20251014                                                                               A
132875      008299295                     003315823                                         00817656                      002025040297800000000000041160000000001 20251014                                                                               A
132875      009555687                     004072050                                         03520989                      002025040297801000000000067860000000001 20251014                                                                               A
132875      009580685                     004077638                                         03521749                      002025040297801000000000130310000000003 20251014                                                                               A
132875      008373280                     003366263                                         00824153                      002025040397800000000000020000000000001 20251014                                                                               A
132875      009431913                     004030496                                         00866775                      002025040297800000000002628760000000076 20251014                                                                               A
132875      009502408                     004056525                                         02882816                      002025040297800000000000123120000000006 20251014                                                                               A
132875      009502457                     004033524                                         02882817                      002025040297800000000000841100000000013 20251014                                                                               A
132875      009505211                     004057838                                         02882858                      002025040297800000000000150000000000001 20251014                                                                               A
132875      009600830                     004082562                                         02910660                      002025040297800000000001628460000000043 20251014                                                                               A
132875      009395191                     003605835                                         03511236                      002025040297801000000000607130000000011 20251014                                                                               A
132875      009397833                     003802937                                         03511506                      002025040297801000000000050000000000001 20251014                                                                               A
132875      008786218                     003657018                                         82004623                      002025040297800000000000478500000000003 20251014                                                                               A
132875      008786218                     003657018                                         82004760                      002025040297800000000001842400000000005 20251014                                                                               A
132875      008786218                     003657018                                         82005392                      002025040297800000000001091750000000004 20251014                                                                               A
132875      008786218                     003657018                                         82004861                      002025040297800000000001741840000000005 20251014                                                                               A
132875      008786218                     003657018                                         82004939                      002025040297800000000001833000000000003 20251014                                                                               A
132875      008786218                     003657018                                         82004005                      002025040297800000000002447640000000005 20251014                                                                               A
132875      008786218                     003657018                                         82004961                      002025040297800000000000690060000000004 20251014                                                                               A
132875      009582038                     004075947                                         87000585                      002025040397800000000000207000000000001 20251014                                                                               A
132875      008786218                     003657018                                         82002066                      002025040397800000000001049920000000003 20251014                                                                               A
132875      008786218                     003657018                                         82003137                      002025040397800000000000979000000000003 20251014                                                                               A
132875      008786218                     003657018                                         82002324                      002025040397800000000000672920000000003 20251014                                                                               A
132875      008786218                     003657018                                         82004726                      002025040397800000000000949500000000005 20251014                                                                               A
132875      008786218                     003657018                                         82002341                      002025040397800000000000885490000000005 20251014                                                                               A
132875      008786218                     003657018                                         82005920                      002025040397800000000001530530000000004 20251014                                                                               A
132875      008786218                     003657018                                         82005413                      002025040397800000000000804000000000004 20251014                                                                               A
132875      008036386                     001647668                                         34009563                      002025040297800000000000896000000000003 20251014                                                                               A
132875      009761503                     001647668                                         34009638                      002025040297800000000006252000000000012 20251014                                                                               A
132875      008786218                     003657018                                         82001396                      002025040297800000000001052740000000004 20251014                                                                               A
132875      008786218                     003657018                                         82002045                      002025040297800000000000339350000000001 20251014                                                                               A
132875      008786218                     003657018                                         82001606                      002025040297800000000001714450000000004 20251014                                                                               A
132875      008786218                     003657018                                         82001555                      002025040297800000000000200000000000001 20251014                                                                               A
132875      008786218                     003657018                                         82000047                      002025040297800000000002532500000000008 20251014                                                                               A
132875      008786218                     003657018                                         82002596                      002025040297800000000000812160000000004 20251014                                                                               A
132875      008786218                     003657018                                         82002616                      002025040297800000000001427000000000002 20251014                                                                               A
132875      008786218                     003657018                                         82002543                      002025040297800000000001533240000000007 20251014                                                                               A
132875      008786218                     003657018                                         82002933                      002025040297800000000000788000000000003 20251014                                                                               A
132875      008786218                     003657018                                         82002660                      002025040297800000000001407500000000004 20251014                                                                               A
132875      008786218                     003657018                                         82002165                      002025040297800000000000470000000000001 20251014                                                                               A
132875      009515301                     004061715                                         03520326                      002025040597801000000000065650000000001 20251014                                                                               A
132875      009480100                     003389315                                         03519925                      002025040597801000000000094200000000002 20251014                                                                               A
132875      009414778                     004033789                                         03519054                      002025040597801000000000060000000000002 20251014                                                                               A
132875      009488574                     003411358                                         03519853                      002025040597801000000000061750000000002 20251014                                                                               A
132875      009419447                     004034100                                         00978084                      002025040297800000000004075390000000093 20251014                                                                               A
132875      009597614                     004081895                                         02588789                      002025040297800000000000471690000000020 20251014                                                                               A
132875      009578176                     004623978                                         02417635                      002025040297800000000000125060000000004 20251014                                                                               A
132875      009295292                     003998164                                         00887121                      012025040297800000000000180000000000001 20251014                                                                               A
132875      009513769                     004060774                                         00822686                      002025040697800000000000809080000000017 20251014                                                                               A
132875      009556180                     004072217                                         00805066                      002025040697800000000000054210000000002 20251014                                                                               A
132875      009520392                     003681315                                         03701771                      002025040697800000000001011480000000031 20251014                                                                               A
132875      009582038                     004075947                                         87000525                      002025040297800000000000676000000000002 20251014                                                                               A
132875      008786218                     003657018                                         82005913                      002025040297800000000004537610000000013 20251014                                                                               A
132875      009539368                     004068710                                         02910125                      002025040297800000000001321800000000003 20251014                                                                               A
132875      009601689                     004082661                                         02910664                      002025040297800000000000054900000000001 20251014                                                                               A
132875      009429669                     004037111                                         02876808                      002025040297800000000000800000000000002 20251014                                                                               A
132875      008328581                     003336860                                         00815693                      002025040397800000000000260010000000009 20251014                                                                               A
132875      008320331                     003330806                                         00811828                      002025040397800000000000067500000000001 20251014                                                                               A
132875      008416899                     003373657                                         00815628                      002025040397800000000001322920000000032 20251014                                                                               A
132875      008372365                     003365547                                         00813517                      002025040397800000000000442840000000007 20251014                                                                               A
132875      009582038                     004075947                                         87000365                      002025040597800000000001012000000000003 20251014                                                                               A
132875      008786218                     003657018                                         82005758                      002025040597800000000002393000000000004 20251014                                                                               A
132875      008786218                     003657018                                         82005265                      002025040597800000000002409000000000007 20251014                                                                               A
132875      008786218                     003657018                                         82005362                      002025040597800000000000180000000000001 20251014                                                                               A
132875      009489648                     004052391                                         02906899                      002025040297800000000000065210000000001 20251014                                                                               A
900000100                                                                                                                                                                                              A
